{
  "contractName": "AssetTracker",
  "abi": [
    {
      "anonymous": false,
      "inputs": [
        {
          "indexed": false,
          "internalType": "int256",
          "name": "uuid",
          "type": "int256"
        },
        {
          "indexed": false,
          "internalType": "string",
          "name": "manufacturer",
          "type": "string"
        },
        {
          "indexed": false,
          "internalType": "string",
          "name": "title",
          "type": "string"
        }
      ],
      "name": "AssetCreated",
      "type": "event",
      "signature": "0x0470ed20f7c7457d80015b283c059221fd6bb1fab1ed24612f47067f4dfe9c26"
    },
    {
      "anonymous": false,
      "inputs": [
        {
          "indexed": false,
          "internalType": "int256",
          "name": "uuid",
          "type": "int256"
        },
        {
          "indexed": false,
          "internalType": "address",
          "name": "from",
          "type": "address"
        },
        {
          "indexed": false,
          "internalType": "address",
          "name": "to",
          "type": "address"
        }
      ],
      "name": "AssetTransferred",
      "type": "event",
      "signature": "0x9d2615445948296222e3c95e27f585454bd876bf30685d58f9515c6419704936"
    },
    {
      "anonymous": false,
      "inputs": [
        {
          "indexed": false,
          "internalType": "string",
          "name": "message",
          "type": "string"
        }
      ],
      "name": "RejectTransfer",
      "type": "event",
      "signature": "0xd2aa390cbe1c22d081b803967928d2b659fc3d6f9c8909fe93b76e6ecec07507"
    },
    {
      "constant": false,
      "inputs": [
        {
          "internalType": "string",
          "name": "title",
          "type": "string"
        },
        {
          "internalType": "string",
          "name": "description",
          "type": "string"
        },
        {
          "internalType": "string",
          "name": "manufacturer",
          "type": "string"
        }
      ],
      "name": "createAsset",
      "outputs": [],
      "payable": false,
      "stateMutability": "nonpayable",
      "type": "function",
      "signature": "0xde58d156"
    },
    {
      "constant": false,
      "inputs": [
        {
          "internalType": "int256",
          "name": "uuid",
          "type": "int256"
        },
        {
          "internalType": "address",
          "name": "targetAddress",
          "type": "address"
        },
        {
          "internalType": "string",
          "name": "location",
          "type": "string"
        }
      ],
      "name": "transferAsset",
      "outputs": [],
      "payable": false,
      "stateMutability": "nonpayable",
      "type": "function",
      "signature": "0x43be9a2a"
    },
    {
      "constant": true,
      "inputs": [
        {
          "internalType": "int256",
          "name": "uuid",
          "type": "int256"
        }
      ],
      "name": "getAssetByUUID",
      "outputs": [
        {
          "internalType": "string",
          "name": "",
          "type": "string"
        },
        {
          "internalType": "string",
          "name": "",
          "type": "string"
        },
        {
          "internalType": "string",
          "name": "",
          "type": "string"
        }
      ],
      "payable": false,
      "stateMutability": "view",
      "type": "function",
      "signature": "0x31c07e6e"
    },
    {
      "constant": true,
      "inputs": [
        {
          "internalType": "int256",
          "name": "uuid",
          "type": "int256"
        }
      ],
      "name": "getAssetLocations",
      "outputs": [
        {
          "internalType": "string",
          "name": "",
          "type": "string"
        }
      ],
      "payable": false,
      "stateMutability": "view",
      "type": "function",
      "signature": "0x62e9ab6b"
    }
  ],
  "bytecode": "0x60806040526000805534801561001457600080fd5b506111fe806100246000396000f3fe608060405234801561001057600080fd5b5060043610610069576000357c01000000000000000000000000000000000000000000000000000000009004806331c07e6e1461006e57806343be9a2a146101ed57806362e9ab6b146102d2578063de58d15614610379575b600080fd5b61009a6004803603602081101561008457600080fd5b8101908080359060200190929190505050610562565b60405180806020018060200180602001848103845287818151815260200191508051906020019080838360005b838110156100e25780820151818401526020810190506100c7565b50505050905090810190601f16801561010f5780820380516001836020036101000a031916815260200191505b50848103835286818151815260200191508051906020019080838360005b8381101561014857808201518184015260208101905061012d565b50505050905090810190601f1680156101755780820380516001836020036101000a031916815260200191505b50848103825285818151815260200191508051906020019080838360005b838110156101ae578082015181840152602081019050610193565b50505050905090810190601f1680156101db5780820380516001836020036101000a031916815260200191505b50965050505050505060405180910390f35b6102d06004803603606081101561020357600080fd5b8101908080359060200190929190803573ffffffffffffffffffffffffffffffffffffffff1690602001909291908035906020019064010000000081111561024a57600080fd5b82018360208201111561025c57600080fd5b8035906020019184600183028401116401000000008311171561027e57600080fd5b91908080601f016020809104026020016040519081016040528093929190818152602001838380828437600081840152601f19601f8201169050808301925050505050505091929192905050506107b7565b005b6102fe600480360360208110156102e857600080fd5b8101908080359060200190929190505050610ac8565b6040518080602001828103825283818151815260200191508051906020019080838360005b8381101561033e578082015181840152602081019050610323565b50505050905090810190601f16801561036b5780820380516001836020036101000a031916815260200191505b509250505060405180910390f35b6105606004803603606081101561038f57600080fd5b81019080803590602001906401000000008111156103ac57600080fd5b8201836020820111156103be57600080fd5b803590602001918460018302840111640100000000831117156103e057600080fd5b91908080601f016020809104026020016040519081016040528093929190818152602001838380828437600081840152601f19601f8201169050808301925050505050505091929192908035906020019064010000000081111561044357600080fd5b82018360208201111561045557600080fd5b8035906020019184600183028401116401000000008311171561047757600080fd5b91908080601f016020809104026020016040519081016040528093929190818152602001838380828437600081840152601f19601f820116905080830192505050505050509192919290803590602001906401000000008111156104da57600080fd5b8201836020820111156104ec57600080fd5b8035906020019184600183028401116401000000008311171561050e57600080fd5b91908080601f016020809104026020016040519081016040528093929190818152602001838380828437600081840152601f19601f820116905080830192505050505050509192919290505050610d2d565b005b60608060606001600085815260200190815260200160002060030160009054906101000a900460ff1661059457600080fd5b600160008581526020019081526020016000206000016001600086815260200190815260200160002060010160016000878152602001908152602001600020600201828054600181600116156101000203166002900480601f01602080910402602001604051908101604052809291908181526020018280546001816001161561010002031660029004801561066b5780601f106106405761010080835404028352916020019161066b565b820191906000526020600020905b81548152906001019060200180831161064e57829003601f168201915b50505050509250818054600181600116156101000203166002900480601f0160208091040260200160405190810160405280929190818152602001828054600181600116156101000203166002900480156107075780601f106106dc57610100808354040283529160200191610707565b820191906000526020600020905b8154815290600101906020018083116106ea57829003601f168201915b50505050509150808054600181600116156101000203166002900480601f0160208091040260200160405190810160405280929190818152602001828054600181600116156101000203166002900480156107a35780601f10610778576101008083540402835291602001916107a3565b820191906000526020600020905b81548152906001019060200180831161078657829003601f168201915b505050505090509250925092509193909250565b6001600084815260200190815260200160002060030160009054906101000a900460ff1661084c577fd2aa390cbe1c22d081b803967928d2b659fc3d6f9c8909fe93b76e6ecec075076040518080602001828103825260148152602001807f617373657420646f6573206e6f7420657869737400000000000000000000000081525060200191505060405180910390a1610ac3565b600260003373ffffffffffffffffffffffffffffffffffffffff1673ffffffffffffffffffffffffffffffffffffffff168152602001908152602001600020600084815260200190815260200160002060009054906101000a900460ff166108fe577fd2aa390cbe1c22d081b803967928d2b659fc3d6f9c8909fe93b76e6ecec075076040518080602001828103825260258152602001806111a56025913960400191505060405180910390a1610ac3565b6001600084815260200190815260200160002060040181908060018154018082558091505090600182039060005260206000200160009091929091909150908051906020019061094f929190610fab565b50506000600260003373ffffffffffffffffffffffffffffffffffffffff1673ffffffffffffffffffffffffffffffffffffffff168152602001908152602001600020600085815260200190815260200160002060006101000a81548160ff0219169083151502179055506001600260008473ffffffffffffffffffffffffffffffffffffffff1673ffffffffffffffffffffffffffffffffffffffff168152602001908152602001600020600085815260200190815260200160002060006101000a81548160ff0219169083151502179055507f9d2615445948296222e3c95e27f585454bd876bf30685d58f9515c6419704936833384604051808481526020018373ffffffffffffffffffffffffffffffffffffffff1673ffffffffffffffffffffffffffffffffffffffff1681526020018273ffffffffffffffffffffffffffffffffffffffff1673ffffffffffffffffffffffffffffffffffffffff168152602001935050505060405180910390a15b505050565b60606001600083815260200190815260200160002060030160009054906101000a900460ff16610af757600080fd5b606060016000848152602001908152602001600020600401805480602002602001604051908101604052809291908181526020016000905b82821015610beb578382906000526020600020018054600181600116156101000203166002900480601f016020809104026020016040519081016040528092919081815260200182805460018160011615610100020316600290048015610bd75780601f10610bac57610100808354040283529160200191610bd7565b820191906000526020600020905b815481529060010190602001808311610bba57829003601f168201915b505050505081526020019060010190610b2f565b505050509050606081600081518110610c0057fe5b602002602001015190506000600190505b8251811015610d225781838281518110610c2757fe5b60200260200101516040516020018083805190602001908083835b60208310610c655780518252602082019150602081019050602083039250610c42565b6001836020036101000a038019825116818451168082178552505050505050905001807f2d0000000000000000000000000000000000000000000000000000000000000081525060010182805190602001908083835b60208310610cde5780518252602082019150602081019050602083039250610cbb565b6001836020036101000a0380198251168184511680821785525050505050509050019250505060405160208183030381529060405291508080600101915050610c11565b508092505050919050565b6000610d37610f90565b905060606040518060a0016040528086815260200185815260200184815260200160011515815260200182815250600160008481526020019081526020016000206000820151816000019080519060200190610d9492919061102b565b506020820151816001019080519060200190610db192919061102b565b506040820151816002019080519060200190610dce92919061102b565b5060608201518160030160006101000a81548160ff0219169083151502179055506080820151816004019080519060200190610e0b9291906110ab565b509050506001600260003373ffffffffffffffffffffffffffffffffffffffff1673ffffffffffffffffffffffffffffffffffffffff168152602001908152602001600020600084815260200190815260200160002060006101000a81548160ff0219169083151502179055507f0470ed20f7c7457d80015b283c059221fd6bb1fab1ed24612f47067f4dfe9c26828487604051808481526020018060200180602001838103835285818151815260200191508051906020019080838360005b83811015610ee6578082015181840152602081019050610ecb565b50505050905090810190601f168015610f135780820380516001836020036101000a031916815260200191505b50838103825284818151815260200191508051906020019080838360005b83811015610f4c578082015181840152602081019050610f31565b50505050905090810190601f168015610f795780820380516001836020036101000a031916815260200191505b509550505050505060405180910390a15050505050565b60008060008154809291906001019190505550600054905090565b828054600181600116156101000203166002900490600052602060002090601f016020900481019282601f10610fec57805160ff191683800117855561101a565b8280016001018555821561101a579182015b82811115611019578251825591602001919060010190610ffe565b5b509050611027919061110b565b5090565b828054600181600116156101000203166002900490600052602060002090601f016020900481019282601f1061106c57805160ff191683800117855561109a565b8280016001018555821561109a579182015b8281111561109957825182559160200191906001019061107e565b5b5090506110a7919061110b565b5090565b8280548282559060005260206000209081019282156110fa579160200282015b828111156110f95782518290805190602001906110e992919061102b565b50916020019190600101906110cb565b5b5090506111079190611130565b5090565b61112d91905b80821115611129576000816000905550600101611111565b5090565b90565b61115991905b80821115611155576000818161114c919061115c565b50600101611136565b5090565b90565b50805460018160011615610100020316600290046000825580601f1061118257506111a1565b601f0160209004906000526020600020908101906111a0919061110b565b5b5056fe796f7520617265206e6f7420616c6c6f77656420746f207472616e73666572206173736574a265627a7a723158200ef0a35c88f08b91530c1c878d741f0c291639ae750e91c6a7485c8bcebd9d9364736f6c634300050b0032",
  "source": "pragma solidity ^0.5.11;\n\n// pragma experimental ABIEncoderV2;\n\ncontract AssetTracker {\n    int256 counter = 0;\n    struct Asset {\n        string title;\n        string description;\n        string manufacturer;\n        bool initialised;\n        string[] locations;\n    }\n\n    //mapping assets with unique uuid\n    mapping(int256 => Asset) private assetStore;\n    //mapping current ownership of asset\n    mapping(address => mapping(int256 => bool)) private WalletStore;\n\n    //events\n    event AssetCreated(int256 uuid, string manufacturer, string title);\n    event AssetTransferred(int256 uuid, address from, address to);\n    event RejectTransfer(string message);\n\n    //uuid generator\n    function generateUUID() private returns (int256) {\n        counter++;\n        return counter;\n    }\n\n    //generate new asset\n    function createAsset(\n        string memory title,\n        string memory description,\n        string memory manufacturer\n    ) public {\n        //genarate uuid using keccak256\n        int256 uuid = generateUUID();\n        string[] memory locations;\n        assetStore[uuid] = Asset(\n            title,\n            description,\n            manufacturer,\n            true,\n            locations\n        );\n        WalletStore[msg.sender][uuid] = true;\n        emit AssetCreated(uuid, manufacturer, title);\n    }\n\n    //update asset location\n    function transferAsset(\n        int256 uuid,\n        address targetAddress,\n        string memory location\n    ) public {\n        //does asset exist\n        if (!assetStore[uuid].initialised) {\n            emit RejectTransfer(\"asset does not exist\");\n            return;\n        }\n        //is it current owner of asset\n        if (!WalletStore[msg.sender][uuid]) {\n            emit RejectTransfer(\"you are not allowed to transfer asset\");\n            return;\n        }\n        //handing over asset\n        assetStore[uuid].locations.push(location);\n        WalletStore[msg.sender][uuid] = false;\n        WalletStore[targetAddress][uuid] = true;\n        emit AssetTransferred(uuid, msg.sender, targetAddress);\n    }\n\n    //view asset info\n    function getAssetByUUID(int256 uuid)\n        public\n        view\n        returns (\n            string memory,\n            string memory,\n            string memory\n        )\n    {\n        require(assetStore[uuid].initialised);\n        return (\n            assetStore[uuid].title,\n            assetStore[uuid].description,\n            assetStore[uuid].manufacturer\n        );\n    }\n\n    function getAssetLocations(int256 uuid)\n        public\n        view\n        returns (string memory)\n    {\n        require(assetStore[uuid].initialised);\n        string[] memory locations = assetStore[uuid].locations;\n        string memory val = locations[0];\n        for (uint256 i = 1; i < locations.length; i++) {\n            val = string(abi.encodePacked(val, \"-\", locations[i]));\n        }\n        return val;\n    }\n}\n",
  "sourcePath": "/Users/keshavgoel/Desktop/hackathon-trackapp/trackPack/src/contracts/AssetTracker.sol",
  "compiler": {
    "name": "solc",
    "version": "0.5.11+commit.c082d0b4.Emscripten.clang"
  },
  "schemaVersion": "3.0.1",
  "updatedAt": "2021-05-29T07:42:19.704Z",
  "devdoc": {
    "methods": {}
  },
  "userdoc": {
    "methods": {}
  }
}