{
  "contractName": "AssetTracker",
  "abi": [
    {
      "constant": true,
      "inputs": [],
      "name": "counter",
      "outputs": [
        {
          "internalType": "int256",
          "name": "",
          "type": "int256"
        }
      ],
      "payable": false,
      "stateMutability": "view",
      "type": "function",
      "signature": "0x61bc221a"
    },
    {
      "anonymous": false,
      "inputs": [
        {
          "indexed": false,
          "internalType": "int256",
          "name": "uuid",
          "type": "int256"
        }
      ],
      "name": "AssetCreated",
      "type": "event",
      "signature": "0x1852111169f168e2963cb58f2e2b976adc5c1deab6f9121547c77c17c3ca00ae"
    },
    {
      "constant": true,
      "inputs": [],
      "name": "getCount",
      "outputs": [
        {
          "internalType": "int256",
          "name": "",
          "type": "int256"
        }
      ],
      "payable": false,
      "stateMutability": "view",
      "type": "function",
      "signature": "0xa87d942c"
    },
    {
      "constant": false,
      "inputs": [
        {
          "internalType": "string",
          "name": "title",
          "type": "string"
        },
        {
          "internalType": "string",
          "name": "description",
          "type": "string"
        }
      ],
      "name": "createAsset",
      "outputs": [],
      "payable": false,
      "stateMutability": "nonpayable",
      "type": "function",
      "signature": "0xa2a55b68"
    },
    {
      "constant": false,
      "inputs": [
        {
          "internalType": "int256",
          "name": "uuid",
          "type": "int256"
        },
        {
          "internalType": "address",
          "name": "targetAddress",
          "type": "address"
        },
        {
          "internalType": "string",
          "name": "location",
          "type": "string"
        }
      ],
      "name": "transferAsset",
      "outputs": [],
      "payable": false,
      "stateMutability": "nonpayable",
      "type": "function",
      "signature": "0x43be9a2a"
    },
    {
      "constant": true,
      "inputs": [
        {
          "internalType": "int256",
          "name": "uuid",
          "type": "int256"
        }
      ],
      "name": "getAssetByUUID",
      "outputs": [
        {
          "internalType": "string",
          "name": "",
          "type": "string"
        },
        {
          "internalType": "string",
          "name": "",
          "type": "string"
        },
        {
          "internalType": "address",
          "name": "",
          "type": "address"
        },
        {
          "internalType": "string",
          "name": "",
          "type": "string"
        },
        {
          "internalType": "address",
          "name": "",
          "type": "address"
        },
        {
          "internalType": "uint256",
          "name": "",
          "type": "uint256"
        }
      ],
      "payable": false,
      "stateMutability": "view",
      "type": "function",
      "signature": "0x31c07e6e"
    }
  ],
  "bytecode": "0x60806040526000805534801561001457600080fd5b50611107806100246000396000f3fe608060405234801561001057600080fd5b5060043610610074576000357c01000000000000000000000000000000000000000000000000000000009004806331c07e6e1461007957806343be9a2a1461026557806361bc221a1461034a578063a2a55b6814610368578063a87d942c146104ba575b600080fd5b6100a56004803603602081101561008f57600080fd5b81019080803590602001909291905050506104d8565b6040518080602001806020018773ffffffffffffffffffffffffffffffffffffffff1673ffffffffffffffffffffffffffffffffffffffff168152602001806020018673ffffffffffffffffffffffffffffffffffffffff1673ffffffffffffffffffffffffffffffffffffffff16815260200185815260200184810384528a818151815260200191508051906020019080838360005b8381101561015757808201518184015260208101905061013c565b50505050905090810190601f1680156101845780820380516001836020036101000a031916815260200191505b50848103835289818151815260200191508051906020019080838360005b838110156101bd5780820151818401526020810190506101a2565b50505050905090810190601f1680156101ea5780820380516001836020036101000a031916815260200191505b50848103825287818151815260200191508051906020019080838360005b83811015610223578082015181840152602081019050610208565b50505050905090810190601f1680156102505780820380516001836020036101000a031916815260200191505b50995050505050505050505060405180910390f35b6103486004803603606081101561027b57600080fd5b8101908080359060200190929190803573ffffffffffffffffffffffffffffffffffffffff169060200190929190803590602001906401000000008111156102c257600080fd5b8201836020820111156102d457600080fd5b803590602001918460018302840111640100000000831117156102f657600080fd5b91908080601f016020809104026020016040519081016040528093929190818152602001838380828437600081840152601f19601f820116905080830192505050505050509192919290505050610936565b005b610352610c1b565b6040518082815260200191505060405180910390f35b6104b86004803603604081101561037e57600080fd5b810190808035906020019064010000000081111561039b57600080fd5b8201836020820111156103ad57600080fd5b803590602001918460018302840111640100000000831117156103cf57600080fd5b91908080601f016020809104026020016040519081016040528093929190818152602001838380828437600081840152601f19601f8201169050808301925050505050505091929192908035906020019064010000000081111561043257600080fd5b82018360208201111561044457600080fd5b8035906020019184600183028401116401000000008311171561046657600080fd5b91908080601f016020809104026020016040519081016040528093929190818152602001838380828437600081840152601f19601f820116905080830192505050505050509192919290505050610c21565b005b6104c2610eb5565b6040518082815260200191505060405180910390f35b606080600060606000806001600088815260200190815260200160002060030160149054906101000a900460ff1661050f57600080fd5b606060016000898152602001908152602001600020600401805480602002602001604051908101604052809291908181526020016000905b82821015610603578382906000526020600020018054600181600116156101000203166002900480601f0160208091040260200160405190810160405280929190818152602001828054600181600116156101000203166002900480156105ef5780601f106105c4576101008083540402835291602001916105ef565b820191906000526020600020905b8154815290600101906020018083116105d257829003601f168201915b505050505081526020019060010190610547565b505050509050606060405180602001604052806000815250905060008090505b8251811015610734578183828151811061063957fe5b60200260200101516040516020018083805190602001908083835b602083106106775780518252602082019150602081019050602083039250610654565b6001836020036101000a038019825116818451168082178552505050505050905001807f2d0000000000000000000000000000000000000000000000000000000000000081525060010182805190602001908083835b602083106106f057805182526020820191506020810190506020830392506106cd565b6001836020036101000a0380198251168184511680821785525050505050509050019250505060405160208183030381529060405291508080600101915050610623565b50600160008a8152602001908152602001600020600001600160008b8152602001908152602001600020600101600160008c815260200190815260200160002060020160009054906101000a900473ffffffffffffffffffffffffffffffffffffffff1683600160008e815260200190815260200160002060030160009054906101000a900473ffffffffffffffffffffffffffffffffffffffff16600160008f815260200190815260200160002060050154858054600181600116156101000203166002900480601f01602080910402602001604051908101604052809291908181526020018280546001816001161561010002031660029004801561087c5780601f106108515761010080835404028352916020019161087c565b820191906000526020600020905b81548152906001019060200180831161085f57829003601f168201915b50505050509550848054600181600116156101000203166002900480601f0160208091040260200160405190810160405280929190818152602001828054600181600116156101000203166002900480156109185780601f106108ed57610100808354040283529160200191610918565b820191906000526020600020905b8154815290600101906020018083116108fb57829003601f168201915b50505050509450975097509750975097509750505091939550919395565b6001600084815260200190815260200160002060030160149054906101000a900460ff166109cc576040517f08c379a00000000000000000000000000000000000000000000000000000000081526004018080602001828103825260158152602001807f6173736574206e6f7420696e697469616c69736564000000000000000000000081525060200191505060405180910390fd5b600260003373ffffffffffffffffffffffffffffffffffffffff1673ffffffffffffffffffffffffffffffffffffffff168152602001908152602001600020600084815260200190815260200160002060009054906101000a900460ff16610a9c576040517f08c379a000000000000000000000000000000000000000000000000000000000815260040180806020018281038252601d8152602001807f6e6f7420616c6c6f77656420746f207472616e7366657220617373657400000081525060200191505060405180910390fd5b60016000848152602001908152602001600020600401819080600181540180825580915050906001820390600052602060002001600090919290919091509080519060200190610aed929190610ed9565b5050816001600085815260200190815260200160002060030160006101000a81548173ffffffffffffffffffffffffffffffffffffffff021916908373ffffffffffffffffffffffffffffffffffffffff1602179055506000600260003373ffffffffffffffffffffffffffffffffffffffff1673ffffffffffffffffffffffffffffffffffffffff168152602001908152602001600020600085815260200190815260200160002060006101000a81548160ff0219169083151502179055506001600260008473ffffffffffffffffffffffffffffffffffffffff1673ffffffffffffffffffffffffffffffffffffffff168152602001908152602001600020600085815260200190815260200160002060006101000a81548160ff021916908315150217905550505050565b60005481565b6000610c2b610ebe565b905060606040518061010001604052808581526020018481526020013373ffffffffffffffffffffffffffffffffffffffff1681526020013373ffffffffffffffffffffffffffffffffffffffff1681526020016001151581526020018281526020014281526020016040518060400160405280600a81526020017f6469737061746368656400000000000000000000000000000000000000000000815250815250600160008481526020019081526020016000206000820151816000019080519060200190610cfc929190610f59565b506020820151816001019080519060200190610d19929190610f59565b5060408201518160020160006101000a81548173ffffffffffffffffffffffffffffffffffffffff021916908373ffffffffffffffffffffffffffffffffffffffff16021790555060608201518160030160006101000a81548173ffffffffffffffffffffffffffffffffffffffff021916908373ffffffffffffffffffffffffffffffffffffffff16021790555060808201518160030160146101000a81548160ff02191690831515021790555060a0820151816004019080519060200190610de4929190610fd9565b5060c0820151816005015560e0820151816006019080519060200190610e0b929190610f59565b509050506001600260003373ffffffffffffffffffffffffffffffffffffffff1673ffffffffffffffffffffffffffffffffffffffff168152602001908152602001600020600084815260200190815260200160002060006101000a81548160ff0219169083151502179055507f1852111169f168e2963cb58f2e2b976adc5c1deab6f9121547c77c17c3ca00ae826040518082815260200191505060405180910390a150505050565b60008054905090565b60008060008154809291906001019190505550600054905090565b828054600181600116156101000203166002900490600052602060002090601f016020900481019282601f10610f1a57805160ff1916838001178555610f48565b82800160010185558215610f48579182015b82811115610f47578251825591602001919060010190610f2c565b5b509050610f559190611039565b5090565b828054600181600116156101000203166002900490600052602060002090601f016020900481019282601f10610f9a57805160ff1916838001178555610fc8565b82800160010185558215610fc8579182015b82811115610fc7578251825591602001919060010190610fac565b5b509050610fd59190611039565b5090565b828054828255906000526020600020908101928215611028579160200282015b82811115611027578251829080519060200190611017929190610f59565b5091602001919060010190610ff9565b5b509050611035919061105e565b5090565b61105b91905b8082111561105757600081600090555060010161103f565b5090565b90565b61108791905b80821115611083576000818161107a919061108a565b50600101611064565b5090565b90565b50805460018160011615610100020316600290046000825580601f106110b057506110cf565b601f0160209004906000526020600020908101906110ce9190611039565b5b5056fea265627a7a72315820173a0ec882b6a45f3f16b7a97b2fe156284d053328498c2d8bb81aeaccb2451764736f6c634300050b0032",
  "source": "pragma solidity ^0.5.11;\n\n// pragma experimental ABIEncoderV2;\n\ncontract AssetTracker {\n    int256 public counter = 0;\n    struct Asset {\n        string title;\n        string description;\n        address manufacturer;\n        address current_owner;\n        bool initialised;\n        string[] locations;\n        uint256 created_at;\n        string status;\n    }\n\n    function getCount() public view returns (int256) {\n        return counter;\n    }\n\n    //mapping assets with unique uuid\n    mapping(int256 => Asset) private assetStore;\n    //mapping current ownership of asset\n    mapping(address => mapping(int256 => bool)) private WalletStore;\n\n    //events\n    event AssetCreated(int256 uuid);\n\n    // event AssetTransferred(int256 uuid, address from, address to);\n    // event RejectTransfer(string message);\n\n    //uuid generator\n    function generateUUID() private returns (int256) {\n        counter++;\n        return counter;\n    }\n\n    //generate new asset\n    function createAsset(string memory title, string memory description)\n        public\n    {\n        //genarate uuid using keccak256\n        int256 uuid = generateUUID();\n        string[] memory locations;\n        assetStore[uuid] = Asset(\n            title,\n            description,\n            msg.sender,\n            msg.sender,\n            true,\n            locations,\n            now,\n            \"dispatched\"\n        );\n        WalletStore[msg.sender][uuid] = true;\n        emit AssetCreated(uuid);\n        (uuid);\n    }\n\n    //update asset location\n    function transferAsset(\n        int256 uuid,\n        address targetAddress,\n        string memory location\n    ) public {\n        //does asset exist\n        // if (!assetStore[uuid].initialised) {\n        //     emit RejectTransfer(\"asset does not exist\");\n        //     return;\n        // }\n        require(assetStore[uuid].initialised, \"asset not initialised\");\n        require(WalletStore[msg.sender][uuid], \"not allowed to transfer asset\");\n        //is it current owner of asset\n        // if (!WalletStore[msg.sender][uuid]) {\n        //     emit RejectTransfer(\"you are not allowed to transfer asset\");\n        //     return;\n        // }\n        //handing over asset\n        assetStore[uuid].locations.push(location);\n        assetStore[uuid].current_owner = targetAddress;\n        WalletStore[msg.sender][uuid] = false;\n        WalletStore[targetAddress][uuid] = true;\n        // emit AssetTransferred(uuid, msg.sender, targetAddress);\n    }\n\n    //view asset info\n    function getAssetByUUID(int256 uuid)\n        public\n        view\n        returns (\n            string memory,\n            string memory,\n            address,\n            string memory,\n            address,\n            uint256\n        )\n    {\n        require(assetStore[uuid].initialised);\n        string[] memory locations = assetStore[uuid].locations;\n        string memory val = \"\";\n        for (uint256 i = 0; i < locations.length; i++) {\n            val = string(abi.encodePacked(val, \"-\", locations[i]));\n        }\n        return (\n            assetStore[uuid].title,\n            assetStore[uuid].description,\n            assetStore[uuid].manufacturer,\n            val,\n            assetStore[uuid].current_owner,\n            assetStore[uuid].created_at\n        );\n    }\n}\n",
  "sourcePath": "/Users/keshavgoel/Desktop/hackathon-trackapp/trackPack/src/contracts/AssetTracker.sol",
  "compiler": {
    "name": "solc",
    "version": "0.5.11+commit.c082d0b4.Emscripten.clang"
  },
  "schemaVersion": "3.0.1",
  "updatedAt": "2021-05-30T04:46:47.955Z",
  "devdoc": {
    "methods": {}
  },
  "userdoc": {
    "methods": {}
  }
}