{
  "contractName": "AssetTracker",
  "abi": [
    {
      "constant": true,
      "inputs": [],
      "name": "counter",
      "outputs": [
        {
          "internalType": "int256",
          "name": "",
          "type": "int256"
        }
      ],
      "payable": false,
      "stateMutability": "view",
      "type": "function",
      "signature": "0x61bc221a"
    },
    {
      "anonymous": false,
      "inputs": [
        {
          "indexed": false,
          "internalType": "int256",
          "name": "uuid",
          "type": "int256"
        },
        {
          "indexed": false,
          "internalType": "string",
          "name": "manufacturer",
          "type": "string"
        },
        {
          "indexed": false,
          "internalType": "string",
          "name": "title",
          "type": "string"
        }
      ],
      "name": "AssetCreated",
      "type": "event",
      "signature": "0x0470ed20f7c7457d80015b283c059221fd6bb1fab1ed24612f47067f4dfe9c26"
    },
    {
      "anonymous": false,
      "inputs": [
        {
          "indexed": false,
          "internalType": "int256",
          "name": "uuid",
          "type": "int256"
        },
        {
          "indexed": false,
          "internalType": "address",
          "name": "from",
          "type": "address"
        },
        {
          "indexed": false,
          "internalType": "address",
          "name": "to",
          "type": "address"
        }
      ],
      "name": "AssetTransferred",
      "type": "event",
      "signature": "0x9d2615445948296222e3c95e27f585454bd876bf30685d58f9515c6419704936"
    },
    {
      "anonymous": false,
      "inputs": [
        {
          "indexed": false,
          "internalType": "string",
          "name": "message",
          "type": "string"
        }
      ],
      "name": "RejectTransfer",
      "type": "event",
      "signature": "0xd2aa390cbe1c22d081b803967928d2b659fc3d6f9c8909fe93b76e6ecec07507"
    },
    {
      "constant": true,
      "inputs": [],
      "name": "getCount",
      "outputs": [
        {
          "internalType": "int256",
          "name": "",
          "type": "int256"
        }
      ],
      "payable": false,
      "stateMutability": "view",
      "type": "function",
      "signature": "0xa87d942c"
    },
    {
      "constant": false,
      "inputs": [
        {
          "internalType": "string",
          "name": "title",
          "type": "string"
        },
        {
          "internalType": "string",
          "name": "description",
          "type": "string"
        },
        {
          "internalType": "string",
          "name": "manufacturer",
          "type": "string"
        }
      ],
      "name": "createAsset",
      "outputs": [
        {
          "internalType": "int256",
          "name": "",
          "type": "int256"
        }
      ],
      "payable": false,
      "stateMutability": "nonpayable",
      "type": "function",
      "signature": "0xde58d156"
    },
    {
      "constant": false,
      "inputs": [
        {
          "internalType": "int256",
          "name": "uuid",
          "type": "int256"
        },
        {
          "internalType": "address",
          "name": "targetAddress",
          "type": "address"
        },
        {
          "internalType": "string",
          "name": "location",
          "type": "string"
        }
      ],
      "name": "transferAsset",
      "outputs": [],
      "payable": false,
      "stateMutability": "nonpayable",
      "type": "function",
      "signature": "0x43be9a2a"
    },
    {
      "constant": true,
      "inputs": [
        {
          "internalType": "int256",
          "name": "uuid",
          "type": "int256"
        }
      ],
      "name": "getAssetByUUID",
      "outputs": [
        {
          "internalType": "string",
          "name": "",
          "type": "string"
        },
        {
          "internalType": "string",
          "name": "",
          "type": "string"
        },
        {
          "internalType": "string",
          "name": "",
          "type": "string"
        },
        {
          "internalType": "string",
          "name": "",
          "type": "string"
        }
      ],
      "payable": false,
      "stateMutability": "view",
      "type": "function",
      "signature": "0x31c07e6e"
    }
  ],
  "bytecode": "0x60806040526000805534801561001457600080fd5b50611154806100246000396000f3fe608060405234801561001057600080fd5b5060043610610074576000357c01000000000000000000000000000000000000000000000000000000009004806331c07e6e1461007957806343be9a2a1461026457806361bc221a14610349578063a87d942c14610367578063de58d15614610385575b600080fd5b6100a56004803603602081101561008f57600080fd5b8101908080359060200190929190505050610582565b6040518080602001806020018060200180602001858103855289818151815260200191508051906020019080838360005b838110156100f15780820151818401526020810190506100d6565b50505050905090810190601f16801561011e5780820380516001836020036101000a031916815260200191505b50858103845288818151815260200191508051906020019080838360005b8381101561015757808201518184015260208101905061013c565b50505050905090810190601f1680156101845780820380516001836020036101000a031916815260200191505b50858103835287818151815260200191508051906020019080838360005b838110156101bd5780820151818401526020810190506101a2565b50505050905090810190601f1680156101ea5780820380516001836020036101000a031916815260200191505b50858103825286818151815260200191508051906020019080838360005b83811015610223578082015181840152602081019050610208565b50505050905090810190601f1680156102505780820380516001836020036101000a031916815260200191505b509850505050505050505060405180910390f35b6103476004803603606081101561027a57600080fd5b8101908080359060200190929190803573ffffffffffffffffffffffffffffffffffffffff169060200190929190803590602001906401000000008111156102c157600080fd5b8201836020820111156102d357600080fd5b803590602001918460018302840111640100000000831117156102f557600080fd5b91908080601f016020809104026020016040519081016040528093929190818152602001838380828437600081840152601f19601f820116905080830192505050505050509192919290505050610a03565b005b610351610c93565b6040518082815260200191505060405180910390f35b61036f610c99565b6040518082815260200191505060405180910390f35b61056c6004803603606081101561039b57600080fd5b81019080803590602001906401000000008111156103b857600080fd5b8201836020820111156103ca57600080fd5b803590602001918460018302840111640100000000831117156103ec57600080fd5b91908080601f016020809104026020016040519081016040528093929190818152602001838380828437600081840152601f19601f8201169050808301925050505050505091929192908035906020019064010000000081111561044f57600080fd5b82018360208201111561046157600080fd5b8035906020019184600183028401116401000000008311171561048357600080fd5b91908080601f016020809104026020016040519081016040528093929190818152602001838380828437600081840152601f19601f820116905080830192505050505050509192919290803590602001906401000000008111156104e657600080fd5b8201836020820111156104f857600080fd5b8035906020019184600183028401116401000000008311171561051a57600080fd5b91908080601f016020809104026020016040519081016040528093929190818152602001838380828437600081840152601f19601f820116905080830192505050505050509192919290505050610ca2565b6040518082815260200191505060405180910390f35b6060806060806001600086815260200190815260200160002060030160009054906101000a900460ff166105b557600080fd5b606060016000878152602001908152602001600020600401805480602002602001604051908101604052809291908181526020016000905b828210156106a9578382906000526020600020018054600181600116156101000203166002900480601f0160208091040260200160405190810160405280929190818152602001828054600181600116156101000203166002900480156106955780601f1061066a57610100808354040283529160200191610695565b820191906000526020600020905b81548152906001019060200180831161067857829003601f168201915b5050505050815260200190600101906105ed565b505050509050606060405180602001604052806000815250905060008090505b82518110156107da57818382815181106106df57fe5b60200260200101516040516020018083805190602001908083835b6020831061071d57805182526020820191506020810190506020830392506106fa565b6001836020036101000a038019825116818451168082178552505050505050905001807f2d0000000000000000000000000000000000000000000000000000000000000081525060010182805190602001908083835b602083106107965780518252602082019150602081019050602083039250610773565b6001836020036101000a03801982511681845116808217855250505050505090500192505050604051602081830303815290604052915080806001019150506106c9565b506001600088815260200190815260200160002060000160016000898152602001908152602001600020600101600160008a815260200190815260200160002060020183838054600181600116156101000203166002900480601f0160208091040260200160405190810160405280929190818152602001828054600181600116156101000203166002900480156108b35780601f10610888576101008083540402835291602001916108b3565b820191906000526020600020905b81548152906001019060200180831161089657829003601f168201915b50505050509350828054600181600116156101000203166002900480601f01602080910402602001604051908101604052809291908181526020018280546001816001161561010002031660029004801561094f5780601f106109245761010080835404028352916020019161094f565b820191906000526020600020905b81548152906001019060200180831161093257829003601f168201915b50505050509250818054600181600116156101000203166002900480601f0160208091040260200160405190810160405280929190818152602001828054600181600116156101000203166002900480156109eb5780601f106109c0576101008083540402835291602001916109eb565b820191906000526020600020905b8154815290600101906020018083116109ce57829003601f168201915b50505050509150955095509550955050509193509193565b6001600084815260200190815260200160002060030160009054906101000a900460ff16610a99576040517f08c379a00000000000000000000000000000000000000000000000000000000081526004018080602001828103825260158152602001807f6173736574206e6f7420696e697469616c69736564000000000000000000000081525060200191505060405180910390fd5b600260003373ffffffffffffffffffffffffffffffffffffffff1673ffffffffffffffffffffffffffffffffffffffff168152602001908152602001600020600084815260200190815260200160002060009054906101000a900460ff16610b69576040517f08c379a000000000000000000000000000000000000000000000000000000000815260040180806020018281038252601d8152602001807f6e6f7420616c6c6f77656420746f207472616e7366657220617373657400000081525060200191505060405180910390fd5b60016000848152602001908152602001600020600401819080600181540180825580915050906001820390600052602060002001600090919290919091509080519060200190610bba929190610f26565b50506000600260003373ffffffffffffffffffffffffffffffffffffffff1673ffffffffffffffffffffffffffffffffffffffff168152602001908152602001600020600085815260200190815260200160002060006101000a81548160ff0219169083151502179055506001600260008473ffffffffffffffffffffffffffffffffffffffff1673ffffffffffffffffffffffffffffffffffffffff168152602001908152602001600020600085815260200190815260200160002060006101000a81548160ff021916908315150217905550505050565b60005481565b60008054905090565b600080610cad610f0b565b905060606040518060a0016040528087815260200186815260200185815260200160011515815260200182815250600160008481526020019081526020016000206000820151816000019080519060200190610d0a929190610fa6565b506020820151816001019080519060200190610d27929190610fa6565b506040820151816002019080519060200190610d44929190610fa6565b5060608201518160030160006101000a81548160ff0219169083151502179055506080820151816004019080519060200190610d81929190611026565b509050506001600260003373ffffffffffffffffffffffffffffffffffffffff1673ffffffffffffffffffffffffffffffffffffffff168152602001908152602001600020600084815260200190815260200160002060006101000a81548160ff0219169083151502179055507f0470ed20f7c7457d80015b283c059221fd6bb1fab1ed24612f47067f4dfe9c26828588604051808481526020018060200180602001838103835285818151815260200191508051906020019080838360005b83811015610e5c578082015181840152602081019050610e41565b50505050905090810190601f168015610e895780820380516001836020036101000a031916815260200191505b50838103825284818151815260200191508051906020019080838360005b83811015610ec2578082015181840152602081019050610ea7565b50505050905090810190601f168015610eef5780820380516001836020036101000a031916815260200191505b509550505050505060405180910390a181925050509392505050565b60008060008154809291906001019190505550600054905090565b828054600181600116156101000203166002900490600052602060002090601f016020900481019282601f10610f6757805160ff1916838001178555610f95565b82800160010185558215610f95579182015b82811115610f94578251825591602001919060010190610f79565b5b509050610fa29190611086565b5090565b828054600181600116156101000203166002900490600052602060002090601f016020900481019282601f10610fe757805160ff1916838001178555611015565b82800160010185558215611015579182015b82811115611014578251825591602001919060010190610ff9565b5b5090506110229190611086565b5090565b828054828255906000526020600020908101928215611075579160200282015b82811115611074578251829080519060200190611064929190610fa6565b5091602001919060010190611046565b5b50905061108291906110ab565b5090565b6110a891905b808211156110a457600081600090555060010161108c565b5090565b90565b6110d491905b808211156110d057600081816110c791906110d7565b506001016110b1565b5090565b90565b50805460018160011615610100020316600290046000825580601f106110fd575061111c565b601f01602090049060005260206000209081019061111b9190611086565b5b5056fea265627a7a72315820b6a8792e43af3f3c1583a29da88fc37e3722dd11effc6725e7beac69c3dc066f64736f6c634300050b0032",
  "source": "pragma solidity ^0.5.11;\n\n// pragma experimental ABIEncoderV2;\n\ncontract AssetTracker {\n    int256 public counter = 0;\n    struct Asset {\n        string title;\n        string description;\n        string manufacturer;\n        bool initialised;\n        string[] locations;\n    }\n\n    function getCount() public view returns (int256) {\n        return counter;\n    }\n\n    //mapping assets with unique uuid\n    mapping(int256 => Asset) private assetStore;\n    //mapping current ownership of asset\n    mapping(address => mapping(int256 => bool)) private WalletStore;\n\n    //events\n    event AssetCreated(int256 uuid, string manufacturer, string title);\n    event AssetTransferred(int256 uuid, address from, address to);\n    event RejectTransfer(string message);\n\n    //uuid generator\n    function generateUUID() private returns (int256) {\n        counter++;\n        return counter;\n    }\n\n    //generate new asset\n    function createAsset(\n        string memory title,\n        string memory description,\n        string memory manufacturer\n    ) public returns (int256) {\n        //genarate uuid using keccak256\n        int256 uuid = generateUUID();\n        string[] memory locations;\n        assetStore[uuid] = Asset(\n            title,\n            description,\n            manufacturer,\n            true,\n            locations\n        );\n        WalletStore[msg.sender][uuid] = true;\n        emit AssetCreated(uuid, manufacturer, title);\n        return uuid;\n    }\n\n    //update asset location\n    function transferAsset(\n        int256 uuid,\n        address targetAddress,\n        string memory location\n    ) public {\n        //does asset exist\n        // if (!assetStore[uuid].initialised) {\n        //     emit RejectTransfer(\"asset does not exist\");\n        //     return;\n        // }\n        require(assetStore[uuid].initialised, \"asset not initialised\");\n        require(WalletStore[msg.sender][uuid], \"not allowed to transfer asset\");\n        //is it current owner of asset\n        // if (!WalletStore[msg.sender][uuid]) {\n        //     emit RejectTransfer(\"you are not allowed to transfer asset\");\n        //     return;\n        // }\n        //handing over asset\n        assetStore[uuid].locations.push(location);\n        WalletStore[msg.sender][uuid] = false;\n        WalletStore[targetAddress][uuid] = true;\n        // emit AssetTransferred(uuid, msg.sender, targetAddress);\n    }\n\n    //view asset info\n    function getAssetByUUID(int256 uuid)\n        public\n        view\n        returns (\n            string memory,\n            string memory,\n            string memory,\n            string memory\n        )\n    {\n        require(assetStore[uuid].initialised);\n        string[] memory locations = assetStore[uuid].locations;\n        string memory val = \"\";\n        for (uint256 i = 0; i < locations.length; i++) {\n            val = string(abi.encodePacked(val, \"-\", locations[i]));\n        }\n        return (\n            assetStore[uuid].title,\n            assetStore[uuid].description,\n            assetStore[uuid].manufacturer,\n            val\n        );\n    }\n}\n",
  "sourcePath": "/Users/keshavgoel/Desktop/hackathon-trackapp/trackPack/src/contracts/AssetTracker.sol",
  "compiler": {
    "name": "solc",
    "version": "0.5.11+commit.c082d0b4.Emscripten.clang"
  },
  "schemaVersion": "3.0.1",
  "updatedAt": "2021-05-29T16:15:32.700Z",
  "devdoc": {
    "methods": {}
  },
  "userdoc": {
    "methods": {}
  }
}